{
  "_format": "hh-sol-artifact-1",
  "contractName": "MintNft",
  "sourceName": "contracts/MintNft.sol",
  "abi": [
    {
      "inputs": [],
      "stateMutability": "nonpayable",
      "type": "constructor"
    },
    {
      "anonymous": false,
      "inputs": [
        {
          "indexed": true,
          "internalType": "address",
          "name": "owner",
          "type": "address"
        },
        {
          "indexed": true,
          "internalType": "address",
          "name": "approved",
          "type": "address"
        },
        {
          "indexed": true,
          "internalType": "uint256",
          "name": "tokenId",
          "type": "uint256"
        }
      ],
      "name": "Approval",
      "type": "event"
    },
    {
      "anonymous": false,
      "inputs": [
        {
          "indexed": true,
          "internalType": "address",
          "name": "owner",
          "type": "address"
        },
        {
          "indexed": true,
          "internalType": "address",
          "name": "operator",
          "type": "address"
        },
        {
          "indexed": false,
          "internalType": "bool",
          "name": "approved",
          "type": "bool"
        }
      ],
      "name": "ApprovalForAll",
      "type": "event"
    },
    {
      "anonymous": false,
      "inputs": [
        {
          "indexed": true,
          "internalType": "address",
          "name": "previousOwner",
          "type": "address"
        },
        {
          "indexed": true,
          "internalType": "address",
          "name": "newOwner",
          "type": "address"
        }
      ],
      "name": "OwnershipTransferred",
      "type": "event"
    },
    {
      "anonymous": false,
      "inputs": [
        {
          "indexed": true,
          "internalType": "address",
          "name": "from",
          "type": "address"
        },
        {
          "indexed": true,
          "internalType": "address",
          "name": "to",
          "type": "address"
        },
        {
          "indexed": true,
          "internalType": "uint256",
          "name": "tokenId",
          "type": "uint256"
        }
      ],
      "name": "Transfer",
      "type": "event"
    },
    {
      "inputs": [
        {
          "internalType": "address",
          "name": "to",
          "type": "address"
        },
        {
          "internalType": "uint256",
          "name": "tokenId",
          "type": "uint256"
        }
      ],
      "name": "approve",
      "outputs": [],
      "stateMutability": "nonpayable",
      "type": "function"
    },
    {
      "inputs": [
        {
          "internalType": "address",
          "name": "owner",
          "type": "address"
        }
      ],
      "name": "balanceOf",
      "outputs": [
        {
          "internalType": "uint256",
          "name": "",
          "type": "uint256"
        }
      ],
      "stateMutability": "view",
      "type": "function"
    },
    {
      "inputs": [
        {
          "internalType": "uint256",
          "name": "tokenId",
          "type": "uint256"
        }
      ],
      "name": "burn",
      "outputs": [],
      "stateMutability": "nonpayable",
      "type": "function"
    },
    {
      "inputs": [
        {
          "internalType": "uint256",
          "name": "tokenId",
          "type": "uint256"
        }
      ],
      "name": "getApproved",
      "outputs": [
        {
          "internalType": "address",
          "name": "",
          "type": "address"
        }
      ],
      "stateMutability": "view",
      "type": "function"
    },
    {
      "inputs": [
        {
          "internalType": "address",
          "name": "_user",
          "type": "address"
        }
      ],
      "name": "getTokenIds",
      "outputs": [
        {
          "internalType": "uint256[]",
          "name": "",
          "type": "uint256[]"
        }
      ],
      "stateMutability": "view",
      "type": "function"
    },
    {
      "inputs": [
        {
          "internalType": "address",
          "name": "owner",
          "type": "address"
        },
        {
          "internalType": "address",
          "name": "operator",
          "type": "address"
        }
      ],
      "name": "isApprovedForAll",
      "outputs": [
        {
          "internalType": "bool",
          "name": "",
          "type": "bool"
        }
      ],
      "stateMutability": "view",
      "type": "function"
    },
    {
      "inputs": [],
      "name": "name",
      "outputs": [
        {
          "internalType": "string",
          "name": "",
          "type": "string"
        }
      ],
      "stateMutability": "view",
      "type": "function"
    },
    {
      "inputs": [],
      "name": "owner",
      "outputs": [
        {
          "internalType": "address",
          "name": "",
          "type": "address"
        }
      ],
      "stateMutability": "view",
      "type": "function"
    },
    {
      "inputs": [
        {
          "internalType": "uint256",
          "name": "tokenId",
          "type": "uint256"
        }
      ],
      "name": "ownerOf",
      "outputs": [
        {
          "internalType": "address",
          "name": "",
          "type": "address"
        }
      ],
      "stateMutability": "view",
      "type": "function"
    },
    {
      "inputs": [],
      "name": "renounceOwnership",
      "outputs": [],
      "stateMutability": "nonpayable",
      "type": "function"
    },
    {
      "inputs": [
        {
          "internalType": "address",
          "name": "to",
          "type": "address"
        },
        {
          "internalType": "string",
          "name": "uri",
          "type": "string"
        }
      ],
      "name": "safeMint",
      "outputs": [],
      "stateMutability": "nonpayable",
      "type": "function"
    },
    {
      "inputs": [
        {
          "internalType": "address",
          "name": "from",
          "type": "address"
        },
        {
          "internalType": "address",
          "name": "to",
          "type": "address"
        },
        {
          "internalType": "uint256",
          "name": "tokenId",
          "type": "uint256"
        }
      ],
      "name": "safeTransferFrom",
      "outputs": [],
      "stateMutability": "nonpayable",
      "type": "function"
    },
    {
      "inputs": [
        {
          "internalType": "address",
          "name": "from",
          "type": "address"
        },
        {
          "internalType": "address",
          "name": "to",
          "type": "address"
        },
        {
          "internalType": "uint256",
          "name": "tokenId",
          "type": "uint256"
        },
        {
          "internalType": "bytes",
          "name": "data",
          "type": "bytes"
        }
      ],
      "name": "safeTransferFrom",
      "outputs": [],
      "stateMutability": "nonpayable",
      "type": "function"
    },
    {
      "inputs": [
        {
          "internalType": "address",
          "name": "operator",
          "type": "address"
        },
        {
          "internalType": "bool",
          "name": "approved",
          "type": "bool"
        }
      ],
      "name": "setApprovalForAll",
      "outputs": [],
      "stateMutability": "nonpayable",
      "type": "function"
    },
    {
      "inputs": [
        {
          "internalType": "bytes4",
          "name": "interfaceId",
          "type": "bytes4"
        }
      ],
      "name": "supportsInterface",
      "outputs": [
        {
          "internalType": "bool",
          "name": "",
          "type": "bool"
        }
      ],
      "stateMutability": "view",
      "type": "function"
    },
    {
      "inputs": [],
      "name": "symbol",
      "outputs": [
        {
          "internalType": "string",
          "name": "",
          "type": "string"
        }
      ],
      "stateMutability": "view",
      "type": "function"
    },
    {
      "inputs": [
        {
          "internalType": "uint256",
          "name": "tokenId",
          "type": "uint256"
        }
      ],
      "name": "tokenURI",
      "outputs": [
        {
          "internalType": "string",
          "name": "",
          "type": "string"
        }
      ],
      "stateMutability": "view",
      "type": "function"
    },
    {
      "inputs": [
        {
          "internalType": "address",
          "name": "from",
          "type": "address"
        },
        {
          "internalType": "address",
          "name": "to",
          "type": "address"
        },
        {
          "internalType": "uint256",
          "name": "tokenId",
          "type": "uint256"
        }
      ],
      "name": "transferFrom",
      "outputs": [],
      "stateMutability": "nonpayable",
      "type": "function"
    },
    {
      "inputs": [
        {
          "internalType": "address",
          "name": "newOwner",
          "type": "address"
        }
      ],
      "name": "transferOwnership",
      "outputs": [],
      "stateMutability": "nonpayable",
      "type": "function"
    }
  ],
  "bytecode": "0x60806040523480156200001157600080fd5b506040518060400160405280600c81526020017f4e46542054726f6e7374657200000000000000000000000000000000000000008152506040518060400160405280600281526020017f4e54000000000000000000000000000000000000000000000000000000000000815250816000908051906020019062000096929190620001a6565b508060019080519060200190620000af929190620001a6565b505050620000d2620000c6620000d860201b60201c565b620000e060201b60201c565b620002bb565b600033905090565b6000600760009054906101000a900473ffffffffffffffffffffffffffffffffffffffff16905081600760006101000a81548173ffffffffffffffffffffffffffffffffffffffff021916908373ffffffffffffffffffffffffffffffffffffffff1602179055508173ffffffffffffffffffffffffffffffffffffffff168173ffffffffffffffffffffffffffffffffffffffff167f8be0079c531659141344cd1fd0a4f28419497f9722a3daafe3b4186f6b6457e060405160405180910390a35050565b828054620001b49062000285565b90600052602060002090601f016020900481019282620001d8576000855562000224565b82601f10620001f357805160ff191683800117855562000224565b8280016001018555821562000224579182015b828111156200022357825182559160200191906001019062000206565b5b50905062000233919062000237565b5090565b5b808211156200025257600081600090555060010162000238565b5090565b7f4e487b7100000000000000000000000000000000000000000000000000000000600052602260045260246000fd5b600060028204905060018216806200029e57607f821691505b60208210811415620002b557620002b462000256565b5b50919050565b61338280620002cb6000396000f3fe608060405234801561001057600080fd5b50600436106101215760003560e01c8063715018a6116100ad578063c87b56dd11610071578063c87b56dd146102f2578063d004b03614610322578063d204c45e14610352578063e985e9c51461036e578063f2fde38b1461039e57610121565b8063715018a6146102745780638da5cb5b1461027e57806395d89b411461029c578063a22cb465146102ba578063b88d4fde146102d657610121565b806323b872dd116100f457806323b872dd146101c057806342842e0e146101dc57806342966c68146101f85780636352211e1461021457806370a082311461024457610121565b806301ffc9a71461012657806306fdde0314610156578063081812fc14610174578063095ea7b3146101a4575b600080fd5b610140600480360381019061013b91906121bc565b6103ba565b60405161014d9190612204565b60405180910390f35b61015e61049c565b60405161016b91906122b8565b60405180910390f35b61018e60048036038101906101899190612310565b61052e565b60405161019b919061237e565b60405180910390f35b6101be60048036038101906101b991906123c5565b610574565b005b6101da60048036038101906101d59190612405565b61068c565b005b6101f660048036038101906101f19190612405565b6106ec565b005b610212600480360381019061020d9190612310565b61070c565b005b61022e60048036038101906102299190612310565b61078e565b60405161023b919061237e565b60405180910390f35b61025e60048036038101906102599190612458565b610815565b60405161026b9190612494565b60405180910390f35b61027c6108cd565b005b6102866108e1565b604051610293919061237e565b60405180910390f35b6102a461090b565b6040516102b191906122b8565b60405180910390f35b6102d460048036038101906102cf91906124db565b61099d565b005b6102f060048036038101906102eb9190612650565b6109b3565b005b61030c60048036038101906103079190612310565b610a15565b60405161031991906122b8565b60405180910390f35b61033c60048036038101906103379190612458565b610a27565b6040516103499190612791565b60405180910390f35b61036c60048036038101906103679190612854565b610abe565b005b610388600480360381019061038391906128b0565b610b55565b6040516103959190612204565b60405180910390f35b6103b860048036038101906103b39190612458565b610be9565b005b60007f80ac58cd000000000000000000000000000000000000000000000000000000007bffffffffffffffffffffffffffffffffffffffffffffffffffffffff1916827bffffffffffffffffffffffffffffffffffffffffffffffffffffffff1916148061048557507f5b5e139f000000000000000000000000000000000000000000000000000000007bffffffffffffffffffffffffffffffffffffffffffffffffffffffff1916827bffffffffffffffffffffffffffffffffffffffffffffffffffffffff1916145b80610495575061049482610c6d565b5b9050919050565b6060600080546104ab9061291f565b80601f01602080910402602001604051908101604052809291908181526020018280546104d79061291f565b80156105245780601f106104f957610100808354040283529160200191610524565b820191906000526020600020905b81548152906001019060200180831161050757829003601f168201915b5050505050905090565b600061053982610cd7565b6004600083815260200190815260200160002060009054906101000a900473ffffffffffffffffffffffffffffffffffffffff169050919050565b600061057f8261078e565b90508073ffffffffffffffffffffffffffffffffffffffff168373ffffffffffffffffffffffffffffffffffffffff1614156105f0576040517f08c379a00000000000000000000000000000000000000000000000000000000081526004016105e7906129c3565b60405180910390fd5b8073ffffffffffffffffffffffffffffffffffffffff1661060f610d22565b73ffffffffffffffffffffffffffffffffffffffff16148061063e575061063d81610638610d22565b610b55565b5b61067d576040517f08c379a000000000000000000000000000000000000000000000000000000000815260040161067490612a55565b60405180910390fd5b6106878383610d2a565b505050565b61069d610697610d22565b82610de3565b6106dc576040517f08c379a00000000000000000000000000000000000000000000000000000000081526004016106d390612ae7565b60405180910390fd5b6106e7838383610e78565b505050565b610707838383604051806020016040528060008152506109b3565b505050565b3373ffffffffffffffffffffffffffffffffffffffff1661072c8261078e565b73ffffffffffffffffffffffffffffffffffffffff1614610782576040517f08c379a000000000000000000000000000000000000000000000000000000000815260040161077990612b79565b60405180910390fd5b61078b81611172565b50565b60008061079a8361117e565b9050600073ffffffffffffffffffffffffffffffffffffffff168173ffffffffffffffffffffffffffffffffffffffff16141561080c576040517f08c379a000000000000000000000000000000000000000000000000000000000815260040161080390612be5565b60405180910390fd5b80915050919050565b60008073ffffffffffffffffffffffffffffffffffffffff168273ffffffffffffffffffffffffffffffffffffffff161415610886576040517f08c379a000000000000000000000000000000000000000000000000000000000815260040161087d90612c77565b60405180910390fd5b600360008373ffffffffffffffffffffffffffffffffffffffff1673ffffffffffffffffffffffffffffffffffffffff168152602001908152602001600020549050919050565b6108d56111bb565b6108df6000611239565b565b6000600760009054906101000a900473ffffffffffffffffffffffffffffffffffffffff16905090565b60606001805461091a9061291f565b80601f01602080910402602001604051908101604052809291908181526020018280546109469061291f565b80156109935780601f1061096857610100808354040283529160200191610993565b820191906000526020600020905b81548152906001019060200180831161097657829003601f168201915b5050505050905090565b6109af6109a8610d22565b83836112ff565b5050565b6109c46109be610d22565b83610de3565b610a03576040517f08c379a00000000000000000000000000000000000000000000000000000000081526004016109fa90612ae7565b60405180910390fd5b610a0f8484848461146c565b50505050565b6060610a20826114c8565b9050919050565b6060600960008373ffffffffffffffffffffffffffffffffffffffff1673ffffffffffffffffffffffffffffffffffffffff168152602001908152602001600020805480602002602001604051908101604052809291908181526020018280548015610ab257602002820191906000526020600020905b815481526020019060010190808311610a9e575b50505050509050919050565b6000610aca60086115db565b9050610ad660086115e9565b610ae083826115ff565b610aea818361161d565b600960008473ffffffffffffffffffffffffffffffffffffffff1673ffffffffffffffffffffffffffffffffffffffff168152602001908152602001600020819080600181540180825580915050600190039060005260206000200160009091909190915055505050565b6000600560008473ffffffffffffffffffffffffffffffffffffffff1673ffffffffffffffffffffffffffffffffffffffff16815260200190815260200160002060008373ffffffffffffffffffffffffffffffffffffffff1673ffffffffffffffffffffffffffffffffffffffff16815260200190815260200160002060009054906101000a900460ff16905092915050565b610bf16111bb565b600073ffffffffffffffffffffffffffffffffffffffff168173ffffffffffffffffffffffffffffffffffffffff161415610c61576040517f08c379a0000000000000000000000000000000000000000000000000000000008152600401610c5890612d09565b60405180910390fd5b610c6a81611239565b50565b60007f01ffc9a7000000000000000000000000000000000000000000000000000000007bffffffffffffffffffffffffffffffffffffffffffffffffffffffff1916827bffffffffffffffffffffffffffffffffffffffffffffffffffffffff1916149050919050565b610ce081611691565b610d1f576040517f08c379a0000000000000000000000000000000000000000000000000000000008152600401610d1690612be5565b60405180910390fd5b50565b600033905090565b816004600083815260200190815260200160002060006101000a81548173ffffffffffffffffffffffffffffffffffffffff021916908373ffffffffffffffffffffffffffffffffffffffff160217905550808273ffffffffffffffffffffffffffffffffffffffff16610d9d8361078e565b73ffffffffffffffffffffffffffffffffffffffff167f8c5be1e5ebec7d5bd14f71427d1e84f3dd0314c0f7b2291e5b200ac8c7c3b92560405160405180910390a45050565b600080610def8361078e565b90508073ffffffffffffffffffffffffffffffffffffffff168473ffffffffffffffffffffffffffffffffffffffff161480610e315750610e308185610b55565b5b80610e6f57508373ffffffffffffffffffffffffffffffffffffffff16610e578461052e565b73ffffffffffffffffffffffffffffffffffffffff16145b91505092915050565b8273ffffffffffffffffffffffffffffffffffffffff16610e988261078e565b73ffffffffffffffffffffffffffffffffffffffff1614610eee576040517f08c379a0000000000000000000000000000000000000000000000000000000008152600401610ee590612d9b565b60405180910390fd5b600073ffffffffffffffffffffffffffffffffffffffff168273ffffffffffffffffffffffffffffffffffffffff161415610f5e576040517f08c379a0000000000000000000000000000000000000000000000000000000008152600401610f5590612e2d565b60405180910390fd5b610f6b83838360016116d2565b8273ffffffffffffffffffffffffffffffffffffffff16610f8b8261078e565b73ffffffffffffffffffffffffffffffffffffffff1614610fe1576040517f08c379a0000000000000000000000000000000000000000000000000000000008152600401610fd890612d9b565b60405180910390fd5b6004600082815260200190815260200160002060006101000a81549073ffffffffffffffffffffffffffffffffffffffff02191690556001600360008573ffffffffffffffffffffffffffffffffffffffff1673ffffffffffffffffffffffffffffffffffffffff168152602001908152602001600020600082825403925050819055506001600360008473ffffffffffffffffffffffffffffffffffffffff1673ffffffffffffffffffffffffffffffffffffffff16815260200190815260200160002060008282540192505081905550816002600083815260200190815260200160002060006101000a81548173ffffffffffffffffffffffffffffffffffffffff021916908373ffffffffffffffffffffffffffffffffffffffff160217905550808273ffffffffffffffffffffffffffffffffffffffff168473ffffffffffffffffffffffffffffffffffffffff167fddf252ad1be2c89b69c2b068fc378daa952ba7f163c4a11628f55a4df523b3ef60405160405180910390a461116d83838360016117f8565b505050565b61117b816117fe565b50565b60006002600083815260200190815260200160002060009054906101000a900473ffffffffffffffffffffffffffffffffffffffff169050919050565b6111c3610d22565b73ffffffffffffffffffffffffffffffffffffffff166111e16108e1565b73ffffffffffffffffffffffffffffffffffffffff1614611237576040517f08c379a000000000000000000000000000000000000000000000000000000000815260040161122e90612e99565b60405180910390fd5b565b6000600760009054906101000a900473ffffffffffffffffffffffffffffffffffffffff16905081600760006101000a81548173ffffffffffffffffffffffffffffffffffffffff021916908373ffffffffffffffffffffffffffffffffffffffff1602179055508173ffffffffffffffffffffffffffffffffffffffff168173ffffffffffffffffffffffffffffffffffffffff167f8be0079c531659141344cd1fd0a4f28419497f9722a3daafe3b4186f6b6457e060405160405180910390a35050565b8173ffffffffffffffffffffffffffffffffffffffff168373ffffffffffffffffffffffffffffffffffffffff16141561136e576040517f08c379a000000000000000000000000000000000000000000000000000000000815260040161136590612f05565b60405180910390fd5b80600560008573ffffffffffffffffffffffffffffffffffffffff1673ffffffffffffffffffffffffffffffffffffffff16815260200190815260200160002060008473ffffffffffffffffffffffffffffffffffffffff1673ffffffffffffffffffffffffffffffffffffffff16815260200190815260200160002060006101000a81548160ff0219169083151502179055508173ffffffffffffffffffffffffffffffffffffffff168373ffffffffffffffffffffffffffffffffffffffff167f17307eab39ab6107e8899845ad3d59bd9653f200f220920489ca2b5937696c318360405161145f9190612204565b60405180910390a3505050565b611477848484610e78565b61148384848484611851565b6114c2576040517f08c379a00000000000000000000000000000000000000000000000000000000081526004016114b990612f97565b60405180910390fd5b50505050565b60606114d382610cd7565b60006006600084815260200190815260200160002080546114f39061291f565b80601f016020809104026020016040519081016040528092919081815260200182805461151f9061291f565b801561156c5780601f106115415761010080835404028352916020019161156c565b820191906000526020600020905b81548152906001019060200180831161154f57829003601f168201915b50505050509050600061157d6119d9565b90506000815114156115935781925050506115d6565b6000825111156115c85780826040516020016115b0929190612ff3565b604051602081830303815290604052925050506115d6565b6115d1846119f0565b925050505b919050565b600081600001549050919050565b6001816000016000828254019250508190555050565b611619828260405180602001604052806000815250611a58565b5050565b61162682611691565b611665576040517f08c379a000000000000000000000000000000000000000000000000000000000815260040161165c90613089565b60405180910390fd5b8060066000848152602001908152602001600020908051906020019061168c92919061206d565b505050565b60008073ffffffffffffffffffffffffffffffffffffffff166116b38361117e565b73ffffffffffffffffffffffffffffffffffffffff1614159050919050565b60018111156117f257600073ffffffffffffffffffffffffffffffffffffffff168473ffffffffffffffffffffffffffffffffffffffff16146117665780600360008673ffffffffffffffffffffffffffffffffffffffff1673ffffffffffffffffffffffffffffffffffffffff168152602001908152602001600020600082825461175e91906130d8565b925050819055505b600073ffffffffffffffffffffffffffffffffffffffff168373ffffffffffffffffffffffffffffffffffffffff16146117f15780600360008573ffffffffffffffffffffffffffffffffffffffff1673ffffffffffffffffffffffffffffffffffffffff16815260200190815260200160002060008282546117e9919061310c565b925050819055505b5b50505050565b50505050565b61180781611ab3565b60006006600083815260200190815260200160002080546118279061291f565b90501461184e5760066000828152602001908152602001600020600061184d91906120f3565b5b50565b60006118728473ffffffffffffffffffffffffffffffffffffffff16611c01565b156119cc578373ffffffffffffffffffffffffffffffffffffffff1663150b7a0261189b610d22565b8786866040518563ffffffff1660e01b81526004016118bd94939291906131b7565b6020604051808303816000875af19250505080156118f957506040513d601f19601f820116820180604052508101906118f69190613218565b60015b61197c573d8060008114611929576040519150601f19603f3d011682016040523d82523d6000602084013e61192e565b606091505b50600081511415611974576040517f08c379a000000000000000000000000000000000000000000000000000000000815260040161196b90612f97565b60405180910390fd5b805181602001fd5b63150b7a0260e01b7bffffffffffffffffffffffffffffffffffffffffffffffffffffffff1916817bffffffffffffffffffffffffffffffffffffffffffffffffffffffff1916149150506119d1565b600190505b949350505050565b606060405180602001604052806000815250905090565b60606119fb82610cd7565b6000611a056119d9565b90506000815111611a255760405180602001604052806000815250611a50565b80611a2f84611c24565b604051602001611a40929190612ff3565b6040516020818303038152906040525b915050919050565b611a628383611cfc565b611a6f6000848484611851565b611aae576040517f08c379a0000000000000000000000000000000000000000000000000000000008152600401611aa590612f97565b60405180910390fd5b505050565b6000611abe8261078e565b9050611ace8160008460016116d2565b611ad78261078e565b90506004600083815260200190815260200160002060006101000a81549073ffffffffffffffffffffffffffffffffffffffff02191690556001600360008373ffffffffffffffffffffffffffffffffffffffff1673ffffffffffffffffffffffffffffffffffffffff168152602001908152602001600020600082825403925050819055506002600083815260200190815260200160002060006101000a81549073ffffffffffffffffffffffffffffffffffffffff021916905581600073ffffffffffffffffffffffffffffffffffffffff168273ffffffffffffffffffffffffffffffffffffffff167fddf252ad1be2c89b69c2b068fc378daa952ba7f163c4a11628f55a4df523b3ef60405160405180910390a4611bfd8160008460016117f8565b5050565b6000808273ffffffffffffffffffffffffffffffffffffffff163b119050919050565b606060006001611c3384611f1a565b01905060008167ffffffffffffffff811115611c5257611c51612525565b5b6040519080825280601f01601f191660200182016040528015611c845781602001600182028036833780820191505090505b509050600082602001820190505b600115611cf1578080600190039150507f3031323334353637383961626364656600000000000000000000000000000000600a86061a8153600a8581611cdb57611cda613245565b5b0494506000851415611cec57611cf1565b611c92565b819350505050919050565b600073ffffffffffffffffffffffffffffffffffffffff168273ffffffffffffffffffffffffffffffffffffffff161415611d6c576040517f08c379a0000000000000000000000000000000000000000000000000000000008152600401611d63906132c0565b60405180910390fd5b611d7581611691565b15611db5576040517f08c379a0000000000000000000000000000000000000000000000000000000008152600401611dac9061332c565b60405180910390fd5b611dc36000838360016116d2565b611dcc81611691565b15611e0c576040517f08c379a0000000000000000000000000000000000000000000000000000000008152600401611e039061332c565b60405180910390fd5b6001600360008473ffffffffffffffffffffffffffffffffffffffff1673ffffffffffffffffffffffffffffffffffffffff16815260200190815260200160002060008282540192505081905550816002600083815260200190815260200160002060006101000a81548173ffffffffffffffffffffffffffffffffffffffff021916908373ffffffffffffffffffffffffffffffffffffffff160217905550808273ffffffffffffffffffffffffffffffffffffffff16600073ffffffffffffffffffffffffffffffffffffffff167fddf252ad1be2c89b69c2b068fc378daa952ba7f163c4a11628f55a4df523b3ef60405160405180910390a4611f166000838360016117f8565b5050565b600080600090507a184f03e93ff9f4daa797ed6e38ed64bf6a1f0100000000000000008310611f78577a184f03e93ff9f4daa797ed6e38ed64bf6a1f0100000000000000008381611f6e57611f6d613245565b5b0492506040810190505b6d04ee2d6d415b85acef81000000008310611fb5576d04ee2d6d415b85acef81000000008381611fab57611faa613245565b5b0492506020810190505b662386f26fc100008310611fe457662386f26fc100008381611fda57611fd9613245565b5b0492506010810190505b6305f5e100831061200d576305f5e100838161200357612002613245565b5b0492506008810190505b612710831061203257612710838161202857612027613245565b5b0492506004810190505b60648310612055576064838161204b5761204a613245565b5b0492506002810190505b600a8310612064576001810190505b80915050919050565b8280546120799061291f565b90600052602060002090601f01602090048101928261209b57600085556120e2565b82601f106120b457805160ff19168380011785556120e2565b828001600101855582156120e2579182015b828111156120e15782518255916020019190600101906120c6565b5b5090506120ef9190612133565b5090565b5080546120ff9061291f565b6000825580601f106121115750612130565b601f01602090049060005260206000209081019061212f9190612133565b5b50565b5b8082111561214c576000816000905550600101612134565b5090565b6000604051905090565b600080fd5b600080fd5b60007fffffffff0000000000000000000000000000000000000000000000000000000082169050919050565b61219981612164565b81146121a457600080fd5b50565b6000813590506121b681612190565b92915050565b6000602082840312156121d2576121d161215a565b5b60006121e0848285016121a7565b91505092915050565b60008115159050919050565b6121fe816121e9565b82525050565b600060208201905061221960008301846121f5565b92915050565b600081519050919050565b600082825260208201905092915050565b60005b8381101561225957808201518184015260208101905061223e565b83811115612268576000848401525b50505050565b6000601f19601f8301169050919050565b600061228a8261221f565b612294818561222a565b93506122a481856020860161223b565b6122ad8161226e565b840191505092915050565b600060208201905081810360008301526122d2818461227f565b905092915050565b6000819050919050565b6122ed816122da565b81146122f857600080fd5b50565b60008135905061230a816122e4565b92915050565b6000602082840312156123265761232561215a565b5b6000612334848285016122fb565b91505092915050565b600073ffffffffffffffffffffffffffffffffffffffff82169050919050565b60006123688261233d565b9050919050565b6123788161235d565b82525050565b6000602082019050612393600083018461236f565b92915050565b6123a28161235d565b81146123ad57600080fd5b50565b6000813590506123bf81612399565b92915050565b600080604083850312156123dc576123db61215a565b5b60006123ea858286016123b0565b92505060206123fb858286016122fb565b9150509250929050565b60008060006060848603121561241e5761241d61215a565b5b600061242c868287016123b0565b935050602061243d868287016123b0565b925050604061244e868287016122fb565b9150509250925092565b60006020828403121561246e5761246d61215a565b5b600061247c848285016123b0565b91505092915050565b61248e816122da565b82525050565b60006020820190506124a96000830184612485565b92915050565b6124b8816121e9565b81146124c357600080fd5b50565b6000813590506124d5816124af565b92915050565b600080604083850312156124f2576124f161215a565b5b6000612500858286016123b0565b9250506020612511858286016124c6565b9150509250929050565b600080fd5b600080fd5b7f4e487b7100000000000000000000000000000000000000000000000000000000600052604160045260246000fd5b61255d8261226e565b810181811067ffffffffffffffff8211171561257c5761257b612525565b5b80604052505050565b600061258f612150565b905061259b8282612554565b919050565b600067ffffffffffffffff8211156125bb576125ba612525565b5b6125c48261226e565b9050602081019050919050565b82818337600083830152505050565b60006125f36125ee846125a0565b612585565b90508281526020810184848401111561260f5761260e612520565b5b61261a8482856125d1565b509392505050565b600082601f8301126126375761263661251b565b5b81356126478482602086016125e0565b91505092915050565b6000806000806080858703121561266a5761266961215a565b5b6000612678878288016123b0565b9450506020612689878288016123b0565b935050604061269a878288016122fb565b925050606085013567ffffffffffffffff8111156126bb576126ba61215f565b5b6126c787828801612622565b91505092959194509250565b600081519050919050565b600082825260208201905092915050565b6000819050602082019050919050565b612708816122da565b82525050565b600061271a83836126ff565b60208301905092915050565b6000602082019050919050565b600061273e826126d3565b61274881856126de565b9350612753836126ef565b8060005b8381101561278457815161276b888261270e565b975061277683612726565b925050600181019050612757565b5085935050505092915050565b600060208201905081810360008301526127ab8184612733565b905092915050565b600067ffffffffffffffff8211156127ce576127cd612525565b5b6127d78261226e565b9050602081019050919050565b60006127f76127f2846127b3565b612585565b90508281526020810184848401111561281357612812612520565b5b61281e8482856125d1565b509392505050565b600082601f83011261283b5761283a61251b565b5b813561284b8482602086016127e4565b91505092915050565b6000806040838503121561286b5761286a61215a565b5b6000612879858286016123b0565b925050602083013567ffffffffffffffff81111561289a5761289961215f565b5b6128a685828601612826565b9150509250929050565b600080604083850312156128c7576128c661215a565b5b60006128d5858286016123b0565b92505060206128e6858286016123b0565b9150509250929050565b7f4e487b7100000000000000000000000000000000000000000000000000000000600052602260045260246000fd5b6000600282049050600182168061293757607f821691505b6020821081141561294b5761294a6128f0565b5b50919050565b7f4552433732313a20617070726f76616c20746f2063757272656e74206f776e6560008201527f7200000000000000000000000000000000000000000000000000000000000000602082015250565b60006129ad60218361222a565b91506129b882612951565b604082019050919050565b600060208201905081810360008301526129dc816129a0565b9050919050565b7f4552433732313a20617070726f76652063616c6c6572206973206e6f7420746f60008201527f6b656e206f776e6572206f7220617070726f76656420666f7220616c6c000000602082015250565b6000612a3f603d8361222a565b9150612a4a826129e3565b604082019050919050565b60006020820190508181036000830152612a6e81612a32565b9050919050565b7f4552433732313a2063616c6c6572206973206e6f7420746f6b656e206f776e6560008201527f72206f7220617070726f76656400000000000000000000000000000000000000602082015250565b6000612ad1602d8361222a565b9150612adc82612a75565b604082019050919050565b60006020820190508181036000830152612b0081612ac4565b9050919050565b7f4f6e6c79206f776e6572206f662074686520746f6b656e2063616e206275726e60008201527f2069740000000000000000000000000000000000000000000000000000000000602082015250565b6000612b6360238361222a565b9150612b6e82612b07565b604082019050919050565b60006020820190508181036000830152612b9281612b56565b9050919050565b7f4552433732313a20696e76616c696420746f6b656e2049440000000000000000600082015250565b6000612bcf60188361222a565b9150612bda82612b99565b602082019050919050565b60006020820190508181036000830152612bfe81612bc2565b9050919050565b7f4552433732313a2061646472657373207a65726f206973206e6f74206120766160008201527f6c6964206f776e65720000000000000000000000000000000000000000000000602082015250565b6000612c6160298361222a565b9150612c6c82612c05565b604082019050919050565b60006020820190508181036000830152612c9081612c54565b9050919050565b7f4f776e61626c653a206e6577206f776e657220697320746865207a65726f206160008201527f6464726573730000000000000000000000000000000000000000000000000000602082015250565b6000612cf360268361222a565b9150612cfe82612c97565b604082019050919050565b60006020820190508181036000830152612d2281612ce6565b9050919050565b7f4552433732313a207472616e736665722066726f6d20696e636f72726563742060008201527f6f776e6572000000000000000000000000000000000000000000000000000000602082015250565b6000612d8560258361222a565b9150612d9082612d29565b604082019050919050565b60006020820190508181036000830152612db481612d78565b9050919050565b7f4552433732313a207472616e7366657220746f20746865207a65726f2061646460008201527f7265737300000000000000000000000000000000000000000000000000000000602082015250565b6000612e1760248361222a565b9150612e2282612dbb565b604082019050919050565b60006020820190508181036000830152612e4681612e0a565b9050919050565b7f4f776e61626c653a2063616c6c6572206973206e6f7420746865206f776e6572600082015250565b6000612e8360208361222a565b9150612e8e82612e4d565b602082019050919050565b60006020820190508181036000830152612eb281612e76565b9050919050565b7f4552433732313a20617070726f766520746f2063616c6c657200000000000000600082015250565b6000612eef60198361222a565b9150612efa82612eb9565b602082019050919050565b60006020820190508181036000830152612f1e81612ee2565b9050919050565b7f4552433732313a207472616e7366657220746f206e6f6e20455243373231526560008201527f63656976657220696d706c656d656e7465720000000000000000000000000000602082015250565b6000612f8160328361222a565b9150612f8c82612f25565b604082019050919050565b60006020820190508181036000830152612fb081612f74565b9050919050565b600081905092915050565b6000612fcd8261221f565b612fd78185612fb7565b9350612fe781856020860161223b565b80840191505092915050565b6000612fff8285612fc2565b915061300b8284612fc2565b91508190509392505050565b7f45524337323155524953746f726167653a2055524920736574206f66206e6f6e60008201527f6578697374656e7420746f6b656e000000000000000000000000000000000000602082015250565b6000613073602e8361222a565b915061307e82613017565b604082019050919050565b600060208201905081810360008301526130a281613066565b9050919050565b7f4e487b7100000000000000000000000000000000000000000000000000000000600052601160045260246000fd5b60006130e3826122da565b91506130ee836122da565b925082821015613101576131006130a9565b5b828203905092915050565b6000613117826122da565b9150613122836122da565b9250827fffffffffffffffffffffffffffffffffffffffffffffffffffffffffffffffff03821115613157576131566130a9565b5b828201905092915050565b600081519050919050565b600082825260208201905092915050565b600061318982613162565b613193818561316d565b93506131a381856020860161223b565b6131ac8161226e565b840191505092915050565b60006080820190506131cc600083018761236f565b6131d9602083018661236f565b6131e66040830185612485565b81810360608301526131f8818461317e565b905095945050505050565b60008151905061321281612190565b92915050565b60006020828403121561322e5761322d61215a565b5b600061323c84828501613203565b91505092915050565b7f4e487b7100000000000000000000000000000000000000000000000000000000600052601260045260246000fd5b7f4552433732313a206d696e7420746f20746865207a65726f2061646472657373600082015250565b60006132aa60208361222a565b91506132b582613274565b602082019050919050565b600060208201905081810360008301526132d98161329d565b9050919050565b7f4552433732313a20746f6b656e20616c7265616479206d696e74656400000000600082015250565b6000613316601c8361222a565b9150613321826132e0565b602082019050919050565b6000602082019050818103600083015261334581613309565b905091905056fea26469706673582212209f281b39675269153006ad72b27ef2cf98728ddf16077e4aad342108cc36255a64736f6c634300080a0033",
  "linkReferences": {},
  "deployedLinkReferences": {}
}